:100000000EC01EC01DC01CC01BC01AC019C018C025
:1000100017C016C015C014C013C012C011C01124DF
:100020001FBECFEDCDBF10E0A0E6B0E0EAE4F6E001
:1000300002C005900D92A236B107D9F702D003C3D2
:10004000DFCFCF93DF93CDB7DD2780916000A1D1C3
:100050008FE0B9D0FACFCF93DF93CDB7DD2788E318
:1000600090E0FC01108287E390E0FC01108286E3BF
:1000700090E0FC0110820000DF91CF910895CF93B2
:10008000DF9300D0CDB7DD2789836A838A818F34DF
:10009000A9F487E390E0FC018081482F8981282F13
:1000A00030E081E090E002C0880F991F2A95E2F7C6
:1000B000242F282B87E390E0FC0120838A81893458
:1000C000B1F487E390E0FC018081482F8981282FDB
:1000D00030E081E090E002C0880F991F2A95E2F796
:1000E0008095242F282387E390E0FC0120830000E3
:1000F0000F900F90DF91CF910895CF93DF930F92E0
:10010000CDB7DD27898386E390E0FC018081282F2D
:1001100030E08981482F50E081E090E0042E02C059
:10012000880F991F0A94E2F7822393232981222FB3
:1001300030E0022E02C0959587950A94E2F70F9061
:10014000DF91CF910895CF93DF9300D0CDB7DD2716
:1001500089836A838A818115B9F088E390E0FC0184
:100160008081482F8A81882F90E02981222F30E0DA
:1001700002C0880F991F2A95E2F7242F282B88E3C5
:1001800090E0FC01208319C088E390E0FC018081AD
:10019000482F8A81882F90E0809590952981222F81
:1001A00030E002C0880F991F2A95E2F78095242F2E
:1001B000282388E390E0FC01208300000F900F903B
:1001C000DF91CF910895CF93DF93CDB7DD27C7504F
:1001D000CDBF8F838F81882F90E0092E000CAA0B52
:1001E000BB0BBC01CD01A3D1DC01CB0126E636E679
:1001F00046EA5EE3BC01CD0104D1DC01CB018A8378
:100200009B83AC83BD836A817B818C819D8161D11D
:10021000DC01CB018E83198203C089818F5F8983C2
:1002200099818E819817C8F300000000C95FCDBF87
:10023000DF91CF910895CF93DF930F92CDB7DD2754
:10024000898386E290E0FC0110828981882F90E00A
:1002500083309105B1F084309105CCF48130910563
:1002600021F08230910539F012C087E290E021E25E
:10027000FC01208311C087E290E022E2FC01208390
:100280000BC087E290E023E2FC01208305C087E2F7
:1002900090E0FC011082000000000F90DF91CF91F0
:1002A0000895CF93DF93CDB7DD2786E290E020E875
:1002B000FC0120838FE087DF86E290E020ECFC01E8
:1002C00020830000DF91CF910895CF93DF93CDB7C6
:1002D000DD2709C086E290E0FC01208180EC90E0FF
:1002E0002071FC01208386E290E0FC018081882F50
:1002F00090E0807199278031910561F724E230E028
:1003000081EC90E0F9012081FC01208325E230E0BE
:1003100080EC90E0F9012081FC0120830000DF9156
:10032000CF910895CF93DF930F92CDB7DD278983C7
:1003300088E390E024E0FC01208387E390E024E060
:10034000FC0120838FE290E02981FC0120838EE272
:1003500090E020E4FC0120838DE290E02BE1FC01A1
:10036000208320E330E080EC90E0F9012081FC0163
:1003700020838EE290E0FC018081882F90E08074E1
:100380009927009749F3000000000F90DF91CF916B
:100390000895CF93DF930F92CDB7DD27898388E34C
:1003A00090E025E0FC01208387E390E025E0FC015C
:1003B00020838FE290E029812E7FFC0120838EE252
:1003C00090E020E4FC0120832FE230E080EC90E01C
:1003D000F9012081FC0120838DE290E02BE2FC01F9
:1003E00020838EE290E0FC018081882F90E0807471
:1003F0009927009789F3000000000F90DF91CF91BB
:1004000008950CD0E6C0DED040F0D5D030F021F415
:100410005F3F19F0C7C0511110C1CAC0EBD098F3AB
:100420009923C9F35523B1F3951B550BBB27AA2775
:1004300062177307840738F09F5F5F4F220F331FE7
:10044000441FAA1FA9F333D00E2E3AF0E0E830D0B3
:1004500091505040E695001CCAF729D0FE2F27D0B6
:10046000660F771F881FBB1F261737074807AB0784
:10047000B0E809F0BB0B802DBF01FF2793585F4FF9
:100480002AF09E3F510568F08DC0D7C05F3FECF366
:10049000983EDCF3869577956795B795F7959F5FBE
:1004A000C9F7880F911D9695879597F90895E1E012
:1004B000660F771F881FBB1F621773078407BA0771
:1004C00020F0621B730B840BBA0BEE1F88F7E095CC
:1004D000089598D088F09F5790F0B92F9927B75179
:1004E000A0F0D1F0660F771F881F991F1AF0BA95F8
:1004F000C9F712C0B13081F09FD0B1E008959CC01F
:10050000672F782F8827B85F39F0B93FCCF38695ED
:1005100077956795B395D9F73EF49095809570954A
:1005200061957F4F8F4F9F4F0895E89409C097FBC7
:100530003EF490958095709561957F4F8F4F9F4FBA
:100540009923A9F0F92F96E9BB279395F6958795FE
:1005500077956795B795F111F8CFFAF4BB0F11F4C1
:1005600060FF1BC06F5F7F4F8F4F9F4F16C0882368
:1005700011F096E911C0772321F09EE8872F762F9E
:1005800005C0662371F096E8862F70E060E02AF0DF
:100590009A95660F771F881FDAF7880F96958795CB
:1005A00097F9089597F99F6780E870E060E00895F3
:1005B0009FEF80EC089500240A941616170618067B
:1005C0000906089500240A94121613061406050657
:1005D0000895092E0394000C11F4882352F0BB0FE8
:1005E00040F4BF2B11F460FF04C06F5F7F4F8F4F4B
:1005F0009F4F089557FD9058440F551F59F05F3F86
:1006000071F04795880F97FB991F61F09F3F79F034
:1006100087950895121613061406551FF2CF4695B6
:10062000F1DF08C0161617061806991FF1CF869538
:100630007105610508940895E894BB27662777271C
:0A064000CB0197F90895F894FFCF5D
:02064A00EE00C0
:00000001FF
